:100000000C9462000C948A000C948A000C948A0070
:100010000C948A000C948A000C948A000C948A0038
:100020000C948A000C948A000C948A000C948A0028
:100030000C948A000C948A000C948A000C948A0018
:100040000C94C0020C948A000C9430030C940A03A4
:100050000C948A000C948A000C948A000C948A00F8
:100060000C948A000C948A000000000024002700F1
:100070002A0000000000250028002B0000000000DE
:1000800023002600290004040404040404040202DA
:100090000202020203030303030301020408102007
:1000A0004080010204081020010204081020000012
:1000B0000008000201000003040700000000000027
:1000C0000000250611241FBECFEFD8E0DEBFCDBF54
:1000D00022E0ACEFB1E001C01D92A23BB207E1F714
:1000E00011E0A0E0B1E0E2ECF5E102C005900D9274
:1000F000AC3FB107D9F710E0C2E6D0E004C02197C9
:10010000FE010E94E708C136D107C9F70E946203C9
:100110000C94DF0A0C940000833081F028F48130C5
:1001200099F08230A9F008958730A9F08830C9F09D
:100130008430B1F4809180008F7D03C08091800075
:100140008F7780938000089584B58F7784BD08955C
:1001500084B58F7DFBCF8091B0008F778093B00006
:1001600008958091B0008F7DF9CFCF93DF93EBEBB3
:10017000F0E08491E7EAF0E0D491E3E9F0E0C491A3
:10018000CC23A1F081110E948C00EC2FF0E0EE0F47
:10019000FF1FE458FF4FA591B491EC91ED2381E04E
:1001A00090E009F480E0DF91CF91089580E090E045
:1001B000FACF2FB7F89460910D0270910E028091E2
:1001C0000F02909110022FBF0895AF92BF92CF926D
:1001D000DF92EF92FF920F931F93CF93DF936C0107
:1001E0007B018B01040F151FEB015E01AE18BF08E8
:1001F000C017D10759F06991D601ED91FC9101909A
:10020000F081E02DC6010995892B79F7C501DF91B1
:10021000CF911F910F91FF90EF90DF90CF90BF9003
:10022000AF900895FC01538D448D252F30E0842F2D
:1002300090E0821B930B541710F0CF96089501970E
:100240000895FC01918D828D981761F0A28DAE0FFB
:10025000BF2FB11D5D968C91928D9F5F9F73928F82
:1002600090E008958FEF9FEF08950F931F930E94E2
:10027000D9006093190270931A0280931B02909325
:100280001C0281E192E00E94210197FF1DC00E94A3
:10029000D9000091190210911A0220911B0230918D
:1002A0001C02601B710B820B930B009115021091C5
:1002B0001602209117023091180260177107820709
:1002C0009307F8F28FEF9FEF1F910F910895FC01B4
:1002D000918D828D981731F0828DE80FF11D858DFB
:1002E00090E008958FEF9FEF0895FC01918D228D8E
:1002F000892F90E0805C9F4F821B91098F73992713
:10030000089581E192E00E94750121E0892B09F4B2
:1003100020E0822F089580E090E0892B29F00E9450
:10032000810181110C9400000895FC01A48DA80F97
:10033000B92FB11DA35ABF4F2C91848D90E0019627
:100340008F739927848FA689B7892C93A089B18947
:100350008C91837080648C93938D848D981306C0E8
:100360000288F389E02D80818F7D80830895EF924C
:10037000FF920F931F93CF93DF93EC0181E0888F5F
:100380009B8D8C8D98131AC0E889F989808185FF2F
:1003900015C09FB7F894EE89FF896083E889F989D1
:1003A00080818370806480839FBF81E090E0DF91D3
:1003B000CF911F910F91FF90EF900895F62E0B8D26
:1003C00010E00F5F1F4F0F731127E02E8C8D8E11E1
:1003D0000CC00FB607FCFACFE889F989808185FF48
:1003E000F5CFCE010E949501F1CFEB8DEC0FFD2FE3
:1003F000F11DE35AFF4FF0829FB7F8940B8FEA8903
:10040000FB8980818062CFCFCF93DF93EC01888D11
:100410008823B9F0AA89BB89E889F9898C9185FD7F
:1004200003C0808186FD0DC00FB607FCF7CF8C910D
:1004300085FFF2CF808185FFEDCFCE010E9495012F
:10044000E9CFDF91CF910895FC0101900020E9F7F9
:100450003197AF01481B590BBC0181E192E00C942C
:10046000E5008F929F92AF92BF920F931F93CF930D
:10047000DF93CDB7DEB7A1970FB6F894DEBF0FBEFE
:10048000CDBF19A2423008F44AE08E010F5D1F4F24
:10049000842E912CB12CA12CA50194010E94C50899
:1004A000E62FB901CA01EA30F4F4E05DD801EE9319
:1004B0008D01232B242B252B79F790E080E01097DA
:1004C00019F0CD010E942402A1960FB6F894DEBF68
:1004D0000FBECDBFDF91CF911F910F91BF90AF9015
:1004E0009F908F900895E95CE1CFCF93DF93FC015B
:1004F000448155816081718181E192E00E94E50033
:10050000EC0188E191E00E9424028C0F9D1FDF9195
:10051000CF910895CF93DF930E942402EC0188E1EC
:1005200091E00E9424028C0F9D1FDF91CF910895CE
:100530000F931F93CF93DF93EC01888199810097EC
:1005400059F02A813B812617370730F081E0DF918F
:10055000CF911F910F9108958B016F5F7F4F0E9484
:10056000120A009759F0998388831B830A832C8190
:100570003D81232B59F7FC011082E8CF80E0E7CFC3
:100580001F920F920FB60F9211242F933F938F93C8
:100590009F93AF93BF9380910D0290910E02A09113
:1005A0000F02B091100230910C0223E0230F2D377F
:1005B00058F50196A11DB11D20930C0280930D02E8
:1005C00090930E02A0930F02B09310028091080244
:1005D00090910902A0910A02B0910B020196A11D0F
:1005E000B11D8093080290930902A0930A02B09370
:1005F0000B02BF91AF919F918F913F912F910F90DF
:100600000FBE0F901F90189526E8230F0296A11D8C
:10061000B11DD2CF1F920F920FB60F9211242F93BC
:100620003F934F935F936F937F938F939F93AF937A
:10063000BF93EF93FF9381E192E00E949501FF91B8
:10064000EF91BF91AF919F918F917F916F915F914A
:100650004F913F912F910F900FBE0F901F901895C3
:100660001F920F920FB60F9211242F938F939F9387
:10067000EF93FF93E0912102F09122028081E091BB
:100680002702F091280282FD1BC0908180912A02EE
:100690008F5F8F7320912B02821741F0E0912A0225
:1006A000F0E0EF5EFD4F958F80932A02FF91EF916E
:1006B0009F918F912F910F900FBE0F901F901895C3
:1006C0008081F4CFCF93DF93CDB7DEB728970FB6F5
:1006D000F894DEBF0FBECDBF789484B5826084BD30
:1006E00084B5816084BD85B5826085BD85B5816036
:1006F00085BD80916E00816080936E0010928100B4
:10070000809181008260809381008091810081606E
:10071000809381008091800081608093800080912F
:10072000B10084608093B1008091B00081608093BB
:10073000B00080917A00846080937A0080917A0082
:10074000826080937A0080917A00816080937A0041
:1007500080917A00806880937A001092C10007EA45
:1007600010E0F801249153E9A52E50E0B52EF501D3
:100770008491882399F090E0880F991FFC01E85933
:10078000FF4FA591B491FC01EE58FF4F85919491D4
:100790008FB7F8949C91292B2C938FBFE8EAF0E057
:1007A0002491E4E9F0E084918823C9F090E0880F77
:1007B000991FFC01E859FF4FA591B491FC01EE5837
:1007C000FF4F459154919FB7F8948C91E22FE0959B
:1007D0008E238C93DA018C91E823EC939FBFE091F8
:1007E0002102F091220282E08083E0911D02F091CB
:1007F0001E021082E0911F02F09120028FEC808394
:1008000010922902E0912502F091260286E0808371
:10081000E0912302F0912402808180618083E09145
:100820002302F0912402808188608083E09123027A
:10083000F0912402808180688083E0912302F0910E
:10084000240280818F7D808382E291E00E948A026F
:100850009BEB292E90E0392E20E0822E20E0922E74
:100860000E94D900C0900402D0900502E0900602D8
:10087000F09007026C197D098E099F09683E73404C
:100880008105910508F440C00E94B5007C01F1018A
:100890008491F801D490F501C490CC20A9F0811185
:1008A0000E948C00EC2DF0E0EE0FFF1FEE58FF4F82
:1008B000A591B4918FB7F8949C91EF2809F46AC080
:1008C000D094D922DC928FBF8DE491E00E94240263
:1008D0000E94D9004AE00E94310280E691E00E9425
:1008E00024020E94B500892B09F056C08EE191E0E8
:1008F0000E948A020E94D90060930402709305024C
:10090000809306029093070281E192E00E947501B4
:10091000892B09F462C01A8219821C821B821E82F2
:100920001D8270E060E0CE0101960E94980229814C
:100930003A81811134C02115310519F0C9010E9495
:1009400089091A8219821E821D821C821B820E94C2
:10095000350197FD2CC08A30910549F18F831886A7
:10096000ED80FE80FFEFEF1AFF0AB701CE0101967E
:100970000E949802882359F329813A818D819E81B2
:10098000BE01695F7F4F820F931F0E94D80AFE82CB
:10099000ED82DDCFD92A96CF8BE191E0A9CF1E82DF
:1009A0001D826AE171E0C9010E94D80AD0CF82E7B6
:1009B00091E00E942402CE0101960E94750289E80E
:1009C00091E00E942402CE0101960E947502898165
:1009D0009A81009711F00E9489090E94D900C09065
:1009E0000002D0900102E0900202F09003026C1924
:1009F0007D098E099F096838734181059105B8F01A
:100A000084EA91E00E9424020E94D9004AE00E94F8
:100A1000310282EC91E00E948A020E94D900609328
:100A200000027093010280930202909303020E94DD
:100A3000D900C090FC01D090FD01E090FE01F09043
:100A4000FF016C197D098E099F09603D7740810582
:100A5000910508F45CC0B0E4B0937C0080917A000A
:100A6000806480937A0080917A0086FDFCCF40906C
:100A7000780050907900052C000C66087708C301B7
:100A8000B2010E94590620E030E040EA50E40E94A2
:100A9000B80620E030EC4FE754E40E941A086B01DE
:100AA0007C0186EC91E00E9424024AE0C301B2017D
:100AB00077FE0DC06DE281E192E00E94B7016627EA
:100AC0007727CB0164197509860997094AE00E94C6
:100AD00031028FED91E00E942402A7019601C70127
:100AE000B6010E94C0088823F1F08DEE91E00E94CB
:100AF000240289EF91E00E948A020E94D90060934B
:100B0000FC017093FD018093FE019093FF0181141D
:100B1000910409F4A5CE0E948101882309F4A0CE96
:100B20000E9400009DCE26013701E89477F82FEF50
:100B30003FEF4FE75FE7C301B2010E94C008811198
:100B40000DC02FEF3FEF4FE75FE7C301B2010E94F7
:100B5000520618161CF481EF91E0C9CF2FEF3FEF3A
:100B60004FE75FE4C701B6010E94BB0818161CF4EA
:100B700085EF91E0BCCF2FEF3FEF4FE75FECC70170
:100B8000B6010E94520687FDF3CF20E030E0A901B4
:100B9000C701B6010E94520687FF09C06DE281E1DC
:100BA00092E00E94B701F7FAF094F7F8F0942AE087
:100BB00037ED43EA5BE3C701B6010E94AE072B01A4
:100BC0003C010E948C086B017C010E9457069B012E
:100BD000AC01C301B2010E94AD072B013C014AE008
:100BE000C701B6010E9431026EE281E192E00E94EB
:100BF000B70120E030E040E251E4C301B2010E94BD
:100C0000B8062B013C010E948C086B01F12CE12CF1
:100C10004AE0C701B6010E943102C701B6010E9435
:100C200057069B01AC01C301B2010E94AD0720E051
:100C300030E040E251E40E94B8060E948C0890E047
:100C400080E04AE00E94310254CFE1E1F2E01382F9
:100C5000128288EE93E0A0E0B0E084839583A683BF
:100C6000B7838AE091E09183808385EC90E095875B
:100C7000848784EC90E09787868780EC90E0918B66
:100C8000808B81EC90E0938B828B82EC90E0958B53
:100C9000848B86EC90E0978B868B118E128E138E50
:100CA000148E08950E94940608F481E00895E89453
:100CB00009C097FB3EF490958095709561957F4FA4
:100CC0008F4F9F4F9923A9F0F92F96E9BB27939552
:100CD000F695879577956795B795F111F8CFFAF462
:100CE000BB0F11F460FF1BC06F5F7F4F8F4F9F4F93
:100CF00016C0882311F096E911C0772321F09EE8F1
:100D0000872F762F05C0662371F096E8862F70E056
:100D100060E02AF09A95660F771F881FDAF7880F30
:100D20009695879597F90895990F0008550FAA0B86
:100D3000E0E8FEEF16161706E807F907C0F01216EE
:100D40001306E407F50798F0621B730B840B950BF1
:100D500039F40A2661F0232B242B252B21F4089546
:100D60000A2609F4A140A6958FEF811D811D0895E3
:100D70000E94CB060C943C070E942E0738F00E947C
:100D8000350720F0952311F00C9425070C942B07C0
:100D900011240C9470070E944D0770F3959FC1F3C6
:100DA000950F50E0551F629FF001729FBB27F00D19
:100DB000B11D639FAA27F00DB11DAA1F649F66276E
:100DC000B00DA11D661F829F2227B00DA11D621FBD
:100DD000739FB00DA11D621F839FA00D611D221F77
:100DE000749F3327A00D611D231F849F600D211D5B
:100DF000822F762F6A2F11249F5750409AF0F1F0DE
:100E000088234AF0EE0FFF1FBB1F661F771F881F46
:100E100091505040A9F79E3F510580F00C94250752
:100E20000C9470075F3FE4F3983ED4F38695779572
:100E30006795B795F795E7959F5FC1F7FE2B880FEC
:100E4000911D9695879597F9089597F99F6780E882
:100E500070E060E008959FEF80EC089500240A940C
:100E60001616170618060906089500240A94121685
:100E70001306140605060895092E0394000C11F4B8
:100E8000882352F0BB0F40F4BF2B11F460FF04C065
:100E90006F5F7F4F8F4F9F4F089557FD9058440FBE
:100EA000551F59F05F3F71F04795880F97FB991FC9
:100EB00061F09F3F79F08795089512161306140686
:100EC000551FF2CF4695F1DF08C016161706180613
:100ED000991FF1CF86957105610508940895E894EE
:100EE000BB2766277727CB0197F908952F923F926A
:100EF0004F925F926F927F928F929F92AF92BF922A
:100F0000CF92DF92EF92FF920F931F93CF93DF93D5
:100F1000CDB7DEB7CA1BDB0B0FB6F894DEBF0FBE32
:100F2000CDBF09942A88398848885F846E847D847F
:100F30008C849B84AA84B984C884DF80EE80FD8081
:100F40000C811B81AA81B981CE0FD11D0FB6F894F7
:100F5000DEBF0FBECDBFED0108955058BB27AA27B5
:100F60000E94C5070C943C070E942E0738F00E948F
:100F7000350720F039F49F3F19F426F40C942B0721
:100F80000EF4E095E7FB0C942507E92F0E944D072E
:100F900058F3BA17620773078407950720F079F4AE
:100FA000A6F50C946F070EF4E0950B2EBA2FA02D2A
:100FB0000B01B90190010C01CA01A0011124FF2706
:100FC000591B99F0593F50F4503E68F11A16F04001
:100FD000A22F232F342F4427585FF3CF4695379500
:100FE0002795A795F0405395C9F77EF41F16BA0BC5
:100FF000620B730B840BBAF09150A1F0FF0FBB1F73
:10100000661F771F881FC2F70EC0BA0F621F731FBB
:10101000841F48F4879577956795B795F7959E3F18
:1010200008F0B0CF9395880F08F09927EE0F9795A9
:10103000879508950E942E080C943C070E9435075E
:1010400058F00E942E0740F029F45F3F29F00C94DD
:10105000250751110C9470070C942B070E944D0723
:1010600068F39923B1F3552391F3951B550BBB27D7
:10107000AA2762177307840738F09F5F5F4F220F1C
:10108000331F441FAA1FA9F335D00E2E3AF0E0E813
:1010900032D091505040E695001CCAF72BD0FE2F5D
:1010A00029D0660F771F881FBB1F261737074807F1
:1010B000AB07B0E809F0BB0B802DBF01FF279358A9
:1010C0005F4F3AF09E3F510578F00C9425070C9441
:1010D00070075F3FE4F3983ED4F386957795679564
:1010E000B795F7959F5FC9F7880F911D96958795DE
:1010F00097F90895E1E0660F771F881FBB1F6217FD
:1011000073078407BA0720F0621B730B840BBA0BBA
:10111000EE1F88F7E09508950E94550788F09F57C5
:1011200098F0B92F9927B751B0F0E1F0660F771F0B
:10113000881F991F1AF0BA95C9F714C0B13091F001
:101140000E946F07B1E008950C946F07672F782F06
:101150008827B85F39F0B93FCCF3869577956795C6
:10116000B395D9F73EF490958095709561957F4F32
:101170008F4F9F4F08950E94940608F48FEF0895B3
:101180000E949406880B990B0895A1E21A2EAA1BBF
:10119000BB1BFD010DC0AA1FBB1FEE1FFF1FA21727
:1011A000B307E407F50720F0A21BB30BE40BF50B24
:1011B000661F771F881F991F1A9469F760957095AD
:1011C000809590959B01AC01BD01CF010895EE0F74
:1011D000FF1F0590F491E02D09940F931F93CF9377
:1011E000DF938230910510F482E090E0E091B0024C
:1011F000F091B10230E020E0B0E0A0E0309799F447
:101200002115310509F44AC0281B390B243031055A
:10121000D8F58A819B816115710589F1FB01938362
:101220008283FE0111C040815181028113814817E0
:101230005907E0F04817590799F4109761F0129692
:101240000C93129713961C933296CF01DF91CF9196
:101250001F910F9108950093B0021093B102F4CF43
:101260002115310551F04217530738F0A901DB0170
:101270009A01BD01DF01F801C1CFEF01F9CF9093D1
:10128000B1028093B002CDCFFE01E20FF31F819334
:1012900091932250310939832883D7CF2091AE0210
:1012A0003091AF02232B41F42091020130910301D0
:1012B0003093AF022093AE022091000130910101E2
:1012C0002115310541F42DB73EB7409104015091ED
:1012D0000501241B350BE091AE02F091AF02E2173D
:1012E000F307A0F42E1B3F0B2817390778F0AC0149
:1012F0004E5F5F4F2417350748F04E0F5F1F509326
:10130000AF024093AE02819391939FCFF0E0E0E073
:101310009CCFCF93DF930097E9F0FC0132971382C3
:101320001282A091B002B091B102ED0130E020E054
:101330001097A1F420813181820F931F2091AE027A
:101340003091AF022817390709F061C0F093AF025E
:10135000E093AE02DF91CF910895EA01CE17DF0747
:10136000E8F54A815B819E0141155105B1F7E9011C
:10137000FB83EA8349915991C40FD51FEC17FD07F0
:1013800061F4808191810296840F951FE901998310
:101390008883828193819B838A83F0E0E0E01296C8
:1013A0008D919C9113970097B9F52D913C911197D0
:1013B000CD010296820F931F2091AE023091AF02B1
:1013C0002817390739F6309751F51092B10210926B
:1013D000B002B093AF02A093AE02BCCFD383C2835E
:1013E00040815181840F951FC817D90761F44E5F62
:1013F0005F4F88819981480F591F518340838A81AB
:101400009B81938382832115310509F0B0CFF0933E
:10141000B102E093B0029ECFFD01DC01C0CF138288
:101420001282D7CFB0E0A0E0E8E1FAE00C947807B0
:101430008C01009751F4CB010E94ED088C01C8018A
:10144000CDB7DEB7E0E10C949407FC01E60FF71F7F
:101450009C0122503109E217F30708F49DC0D9011D
:10146000CD91DC911197C617D70798F0C530D105FB
:1014700030F3CE0104978617970708F3C61BD70BE6
:101480002297C193D1936D937C93CF010E948909D8
:10149000D6CF5B01AC1ABD0A4C018C0E9D1EA091EB
:1014A000B002B091B102512C412CF12CE12C1097DB
:1014B00031F58091AE029091AF028815990509F03F
:1014C0005CC04616570608F058C080910001909104
:1014D0000101009741F48DB79EB7409104015091EE
:1014E0000501841B950BE817F90708F055C0F09328
:1014F000AF02E093AE02F90171836083A0CF8D91BA
:101500009C91119712966C90129713967C9013975A
:10151000A815B90559F56C0142E0C40ED11CCA14D6
:10152000DB0420F1AC014A195B09DA011296159728
:1015300080F06282738251834083D9016D937C93E2
:10154000E114F10471F0D7011396FC93EE93129716
:1015500076CF22968C0F9D1FF90191838083F30132
:10156000EFCFF093B102E093B00269CF481659066D
:1015700008F42C017D01D3019ACFCB010E94ED0824
:101580007C01009749F0AE01B8010E94CF0AC80162
:101590000E948909870153CF10E000E050CFFB0182
:1015A000DC0102C001900D9241505040D8F70895DF
:1015B000FB01DC0101900D920020E1F70895F89401
:0215C000FFCF5B
:1015C2000000B202800000000000B701E500120135
:1015D20004027501210167010D0A004F4E004F46BA
:1015E20046003D3D3D2041726475696E6F204E613B
:1015F2006E6F20446961676E6F737469632054650E
:101602007374205374617274203D3D3D005B4C4500
:10161200445F424C494E4B5D2054696D653A20004F
:10162200206D73202D204C4544206973206E6F7706
:1016320020005B53455249414C5F52585D20526530
:101642006365697665643A20005B53455249414CB3
:101652005F54585D204563686F696E6720626163FD
:101662006B3A20005B54494D45525D20352073652D
:10167200636F6E647320656C61707365642061745E
:101682002000206D73005B414E414C4F475F524535
:1016920041445D2041302076616C75653A2000201E
:1016A2002D3E20566F6C746167653A20006E616E44
:0C16B20000696E66006F7666002056002E
:00000001FF
